{
  "contractName": "LandToken",
  "abi": [
    {
      "anonymous": false,
      "inputs": [
        {
          "indexed": true,
          "internalType": "address",
          "name": "owner",
          "type": "address"
        },
        {
          "indexed": true,
          "internalType": "address",
          "name": "spender",
          "type": "address"
        },
        {
          "indexed": false,
          "internalType": "uint256",
          "name": "value",
          "type": "uint256"
        }
      ],
      "name": "Approval",
      "type": "event"
    },
    {
      "anonymous": false,
      "inputs": [
        {
          "indexed": true,
          "internalType": "address",
          "name": "from",
          "type": "address"
        },
        {
          "indexed": true,
          "internalType": "address",
          "name": "to",
          "type": "address"
        },
        {
          "indexed": false,
          "internalType": "uint256",
          "name": "value",
          "type": "uint256"
        }
      ],
      "name": "Transfer",
      "type": "event"
    },
    {
      "constant": true,
      "inputs": [
        {
          "internalType": "address",
          "name": "",
          "type": "address"
        },
        {
          "internalType": "address",
          "name": "",
          "type": "address"
        }
      ],
      "name": "allowance",
      "outputs": [
        {
          "internalType": "uint256",
          "name": "",
          "type": "uint256"
        }
      ],
      "payable": false,
      "stateMutability": "view",
      "type": "function"
    },
    {
      "constant": true,
      "inputs": [
        {
          "internalType": "address",
          "name": "",
          "type": "address"
        }
      ],
      "name": "balanceOf",
      "outputs": [
        {
          "internalType": "uint256",
          "name": "",
          "type": "uint256"
        }
      ],
      "payable": false,
      "stateMutability": "view",
      "type": "function"
    },
    {
      "constant": true,
      "inputs": [],
      "name": "decimals",
      "outputs": [
        {
          "internalType": "uint8",
          "name": "",
          "type": "uint8"
        }
      ],
      "payable": false,
      "stateMutability": "view",
      "type": "function"
    },
    {
      "constant": true,
      "inputs": [],
      "name": "name",
      "outputs": [
        {
          "internalType": "string",
          "name": "",
          "type": "string"
        }
      ],
      "payable": false,
      "stateMutability": "view",
      "type": "function"
    },
    {
      "constant": true,
      "inputs": [],
      "name": "symbol",
      "outputs": [
        {
          "internalType": "string",
          "name": "",
          "type": "string"
        }
      ],
      "payable": false,
      "stateMutability": "view",
      "type": "function"
    },
    {
      "constant": true,
      "inputs": [],
      "name": "totalSupply",
      "outputs": [
        {
          "internalType": "uint256",
          "name": "",
          "type": "uint256"
        }
      ],
      "payable": false,
      "stateMutability": "view",
      "type": "function"
    },
    {
      "constant": false,
      "inputs": [
        {
          "internalType": "address",
          "name": "to",
          "type": "address"
        },
        {
          "internalType": "uint256",
          "name": "amount",
          "type": "uint256"
        }
      ],
      "name": "mint",
      "outputs": [],
      "payable": false,
      "stateMutability": "nonpayable",
      "type": "function"
    },
    {
      "constant": false,
      "inputs": [
        {
          "internalType": "address",
          "name": "to",
          "type": "address"
        },
        {
          "internalType": "uint256",
          "name": "value",
          "type": "uint256"
        }
      ],
      "name": "transfer",
      "outputs": [
        {
          "internalType": "bool",
          "name": "success",
          "type": "bool"
        }
      ],
      "payable": false,
      "stateMutability": "nonpayable",
      "type": "function"
    },
    {
      "constant": false,
      "inputs": [
        {
          "internalType": "address",
          "name": "spender",
          "type": "address"
        },
        {
          "internalType": "uint256",
          "name": "value",
          "type": "uint256"
        }
      ],
      "name": "approve",
      "outputs": [
        {
          "internalType": "bool",
          "name": "success",
          "type": "bool"
        }
      ],
      "payable": false,
      "stateMutability": "nonpayable",
      "type": "function"
    },
    {
      "constant": false,
      "inputs": [
        {
          "internalType": "address",
          "name": "from",
          "type": "address"
        },
        {
          "internalType": "address",
          "name": "to",
          "type": "address"
        },
        {
          "internalType": "uint256",
          "name": "value",
          "type": "uint256"
        }
      ],
      "name": "transferFrom",
      "outputs": [
        {
          "internalType": "bool",
          "name": "success",
          "type": "bool"
        }
      ],
      "payable": false,
      "stateMutability": "nonpayable",
      "type": "function"
    }
  ],
  "bytecode": "0x60806040526040518060400160405280600981526020017f4c616e64546f6b656e00000000000000000000000000000000000000000000008152506000908051906020019061004f9291906100ca565b506040518060400160405280600381526020017f4c4e4400000000000000000000000000000000000000000000000000000000008152506001908051906020019061009b9291906100ca565b506012600260006101000a81548160ff021916908360ff1602179055503480156100c457600080fd5b5061016f565b828054600181600116156101000203166002900490600052602060002090601f016020900481019282601f1061010b57805160ff1916838001178555610139565b82800160010185558215610139579182015b8281111561013857825182559160200191906001019061011d565b5b509050610146919061014a565b5090565b61016c91905b80821115610168576000816000905550600101610150565b5090565b90565b610daf8061017e6000396000f3fe608060405234801561001057600080fd5b506004361061009e5760003560e01c806340c10f191161006657806340c10f191461015d57806370a082311461017957806395d89b41146101a9578063a9059cbb146101c7578063dd62ed3e146101f75761009e565b806306fdde03146100a3578063095ea7b3146100c157806318160ddd146100f157806323b872dd1461010f578063313ce5671461013f575b600080fd5b6100ab610227565b6040516100b89190610bf1565b60405180910390f35b6100db60048036036100d69190810190610ab4565b6102c5565b6040516100e89190610bd6565b60405180910390f35b6100f96103b7565b6040516101069190610c53565b60405180910390f35b61012960048036036101249190810190610a65565b6103bd565b6040516101369190610bd6565b60405180910390f35b610147610694565b6040516101549190610c6e565b60405180910390f35b61017760048036036101729190810190610ab4565b6106a7565b005b610193600480360361018e9190810190610a00565b61076e565b6040516101a09190610c53565b60405180910390f35b6101b1610786565b6040516101be9190610bf1565b60405180910390f35b6101e160048036036101dc9190810190610ab4565b610824565b6040516101ee9190610bd6565b60405180910390f35b610211600480360361020c9190810190610a29565b6109b1565b60405161021e9190610c53565b60405180910390f35b60008054600181600116156101000203166002900480601f0160208091040260200160405190810160405280929190818152602001828054600181600116156101000203166002900480156102bd5780601f10610292576101008083540402835291602001916102bd565b820191906000526020600020905b8154815290600101906020018083116102a057829003601f168201915b505050505081565b600081600560003373ffffffffffffffffffffffffffffffffffffffff1673ffffffffffffffffffffffffffffffffffffffff16815260200190815260200160002060008573ffffffffffffffffffffffffffffffffffffffff1673ffffffffffffffffffffffffffffffffffffffff168152602001908152602001600020819055508273ffffffffffffffffffffffffffffffffffffffff163373ffffffffffffffffffffffffffffffffffffffff167f8c5be1e5ebec7d5bd14f71427d1e84f3dd0314c0f7b2291e5b200ac8c7c3b925846040516103a59190610c53565b60405180910390a36001905092915050565b60035481565b600081600460008673ffffffffffffffffffffffffffffffffffffffff1673ffffffffffffffffffffffffffffffffffffffff168152602001908152602001600020541015610441576040517f08c379a000000000000000000000000000000000000000000000000000000000815260040161043890610c33565b60405180910390fd5b81600560008673ffffffffffffffffffffffffffffffffffffffff1673ffffffffffffffffffffffffffffffffffffffff16815260200190815260200160002060003373ffffffffffffffffffffffffffffffffffffffff1673ffffffffffffffffffffffffffffffffffffffff168152602001908152602001600020541015610500576040517f08c379a00000000000000000000000000000000000000000000000000000000081526004016104f790610c13565b60405180910390fd5b81600460008673ffffffffffffffffffffffffffffffffffffffff1673ffffffffffffffffffffffffffffffffffffffff1681526020019081526020016000206000828254039250508190555081600460008573ffffffffffffffffffffffffffffffffffffffff1673ffffffffffffffffffffffffffffffffffffffff1681526020019081526020016000206000828254019250508190555081600560008673ffffffffffffffffffffffffffffffffffffffff1673ffffffffffffffffffffffffffffffffffffffff16815260200190815260200160002060003373ffffffffffffffffffffffffffffffffffffffff1673ffffffffffffffffffffffffffffffffffffffff168152602001908152602001600020600082825403925050819055508273ffffffffffffffffffffffffffffffffffffffff168473ffffffffffffffffffffffffffffffffffffffff167fddf252ad1be2c89b69c2b068fc378daa952ba7f163c4a11628f55a4df523b3ef846040516106819190610c53565b60405180910390a3600190509392505050565b600260009054906101000a900460ff1681565b8060036000828254019250508190555080600460008473ffffffffffffffffffffffffffffffffffffffff1673ffffffffffffffffffffffffffffffffffffffff168152602001908152602001600020600082825401925050819055508173ffffffffffffffffffffffffffffffffffffffff16600073ffffffffffffffffffffffffffffffffffffffff167fddf252ad1be2c89b69c2b068fc378daa952ba7f163c4a11628f55a4df523b3ef836040516107629190610c53565b60405180910390a35050565b60046020528060005260406000206000915090505481565b60018054600181600116156101000203166002900480601f01602080910402602001604051908101604052809291908181526020018280546001816001161561010002031660029004801561081c5780601f106107f15761010080835404028352916020019161081c565b820191906000526020600020905b8154815290600101906020018083116107ff57829003601f168201915b505050505081565b600081600460003373ffffffffffffffffffffffffffffffffffffffff1673ffffffffffffffffffffffffffffffffffffffff1681526020019081526020016000205410156108a8576040517f08c379a000000000000000000000000000000000000000000000000000000000815260040161089f90610c33565b60405180910390fd5b81600460003373ffffffffffffffffffffffffffffffffffffffff1673ffffffffffffffffffffffffffffffffffffffff1681526020019081526020016000206000828254039250508190555081600460008573ffffffffffffffffffffffffffffffffffffffff1673ffffffffffffffffffffffffffffffffffffffff168152602001908152602001600020600082825401925050819055508273ffffffffffffffffffffffffffffffffffffffff163373ffffffffffffffffffffffffffffffffffffffff167fddf252ad1be2c89b69c2b068fc378daa952ba7f163c4a11628f55a4df523b3ef8460405161099f9190610c53565b60405180910390a36001905092915050565b6005602052816000526040600020602052806000526040600020600091509150505481565b6000813590506109e581610d3e565b92915050565b6000813590506109fa81610d55565b92915050565b600060208284031215610a1257600080fd5b6000610a20848285016109d6565b91505092915050565b60008060408385031215610a3c57600080fd5b6000610a4a858286016109d6565b9250506020610a5b858286016109d6565b9150509250929050565b600080600060608486031215610a7a57600080fd5b6000610a88868287016109d6565b9350506020610a99868287016109d6565b9250506040610aaa868287016109eb565b9150509250925092565b60008060408385031215610ac757600080fd5b6000610ad5858286016109d6565b9250506020610ae6858286016109eb565b9150509250929050565b610af981610cb7565b82525050565b6000610b0a82610c89565b610b148185610c94565b9350610b24818560208601610cfa565b610b2d81610d2d565b840191505092915050565b6000610b45601283610c94565b91507f416c6c6f77616e636520657863656564656400000000000000000000000000006000830152602082019050919050565b6000610b85601483610c94565b91507f496e73756666696369656e742062616c616e63650000000000000000000000006000830152602082019050919050565b610bc181610ce3565b82525050565b610bd081610ced565b82525050565b6000602082019050610beb6000830184610af0565b92915050565b60006020820190508181036000830152610c0b8184610aff565b905092915050565b60006020820190508181036000830152610c2c81610b38565b9050919050565b60006020820190508181036000830152610c4c81610b78565b9050919050565b6000602082019050610c686000830184610bb8565b92915050565b6000602082019050610c836000830184610bc7565b92915050565b600081519050919050565b600082825260208201905092915050565b6000610cb082610cc3565b9050919050565b60008115159050919050565b600073ffffffffffffffffffffffffffffffffffffffff82169050919050565b6000819050919050565b600060ff82169050919050565b60005b83811015610d18578082015181840152602081019050610cfd565b83811115610d27576000848401525b50505050565b6000601f19601f8301169050919050565b610d4781610ca5565b8114610d5257600080fd5b50565b610d5e81610ce3565b8114610d6957600080fd5b5056fea365627a7a723158205c0a70bd74e70d9b2b7c87fc7e4139dc1de2d45bc180846d5064ede52e05d3896c6578706572696d656e74616cf564736f6c63430005110040",
  "source": "// pragma solidity >=0.5.2;\r\n// pragma experimental ABIEncoderV2;\r\n\r\n// contract Land {\r\n//     struct Landreg {\r\n//         uint id;\r\n//         string landAddress;\r\n//         string area;\r\n//         string city;\r\n//         string district;\r\n//         string country;\r\n//         uint landPrice;\r\n//         string propertyID;\r\n//     }\r\n\r\n//     struct Buyer {\r\n//         address id;\r\n//         string name;\r\n//         uint age;\r\n//         string city;\r\n//         string HKID;\r\n//         string email;\r\n//     }\r\n\r\n//     struct Seller {\r\n//         address id;\r\n//         string name;\r\n//         uint age;\r\n//         string HKID;\r\n//     }\r\n\r\n//     struct LandRequest {\r\n//         uint reqId;\r\n//         address sellerId;\r\n//         address buyerId;\r\n//         uint landId;\r\n//     }\r\n\r\n//     address public landInspector;\r\n\r\n//     //key value pairs\r\n//     mapping(uint => Landreg) public lands;\r\n//     mapping(address => Seller) public SellerMapping;\r\n//     mapping(address => Buyer) public BuyerMapping;\r\n//     mapping(uint => LandRequest) public RequestsMapping;\r\n\r\n//     // New mapping to track unique property IDs\r\n//     mapping(string => bool) private propertyIDExists;\r\n\r\n//     mapping(address => bool) public RegisteredAddressMapping;\r\n//     mapping(address => bool) public RegisteredSellerMapping;\r\n//     mapping(address => bool) public RegisteredBuyerMapping;\r\n//     mapping(uint => address) public LandOwner;\r\n//     mapping(uint => bool) public RequestStatus;\r\n//     mapping(uint => bool) public RequestedLands;\r\n//     mapping(uint => bool) public PaymentReceived;\r\n\r\n//     mapping(uint => bool) public landApprovalStatus; // Tracks if land is approved by the land inspector\r\n//     mapping(uint => bool) public saleApprovalStatus; // Tracks if the sale is approved by the land inspector\r\n\r\n//     // address public Land_Inspector;\r\n//     address[] public sellers;\r\n//     address[] public buyers;\r\n\r\n//     uint public landsCount;\r\n//     // uint public inspectorsCount;\r\n//     uint public sellersCount;\r\n//     uint public buyersCount;\r\n//     uint public requestsCount;\r\n\r\n//     event Registration(address _registrationId);\r\n//     event AddingLand(uint indexed _landId);\r\n//     event Landrequested(address _sellerId);\r\n//     event requestApproved(address _buyerId);\r\n//     event LandOwnershipTransferred(\r\n//         uint indexed landId,\r\n//         address indexed seller,\r\n//         address indexed buyer\r\n//     );\r\n\r\n//     event LandAdded(uint indexed _landId, address indexed _seller);\r\n//     event LandApproved(uint indexed _landId);\r\n//     event SaleRequested(\r\n//         uint indexed _landId,\r\n//         address indexed _seller,\r\n//         address indexed _buyer\r\n//     );\r\n//     event SaleApproved(\r\n//         uint indexed _landId,\r\n//         address indexed _seller,\r\n//         address indexed _buyer\r\n//     );\r\n//     event PaymentMade(\r\n//         uint indexed _landId,\r\n//         address indexed _seller,\r\n//         address indexed _buyer\r\n//     );\r\n\r\n//     // Constructor to set the deployer as the initial land inspector\r\n//     constructor() public {\r\n//         landInspector = msg.sender;\r\n//     }\r\n\r\n//     // Modifier to check if the caller is the land inspector\r\n//     modifier onlyLandInspector() {\r\n//         require(\r\n//             msg.sender == landInspector,\r\n//             \"Caller is not the land inspector\"\r\n//         );\r\n//         _;\r\n//     }\r\n\r\n//     function getLandsCount() public view returns (uint) {\r\n//         return landsCount;\r\n//     }\r\n\r\n//     function getBuyersCount() public view returns (uint) {\r\n//         return buyersCount;\r\n//     }\r\n\r\n//     function getSellersCount() public view returns (uint) {\r\n//         return sellersCount;\r\n//     }\r\n\r\n//     function getRequestsCount() public view returns (uint) {\r\n//         return requestsCount;\r\n//     }\r\n//     function getArea(uint i) public view returns (string memory) {\r\n//         return lands[i].area;\r\n//     }\r\n//     function getCity(uint i) public view returns (string memory) {\r\n//         return lands[i].city;\r\n//     }\r\n//     function getDistrict(uint i) public view returns (string memory) {\r\n//         return lands[i].district;\r\n//     }\r\n//     function getPrice(uint i) public view returns (uint) {\r\n//         return lands[i].landPrice;\r\n//     }\r\n//     function getPID(uint i) public view returns (string memory) {\r\n//         return lands[i].propertyID;\r\n//     }\r\n\r\n//     function getLandOwner(uint id) public view returns (address) {\r\n//         return LandOwner[id];\r\n//     }\r\n\r\n//     function isSeller(address _id) public view returns (bool) {\r\n//         if (RegisteredSellerMapping[_id]) {\r\n//             return true;\r\n//         }\r\n//     }\r\n\r\n//     function isBuyer(address _id) public view returns (bool) {\r\n//         if (RegisteredBuyerMapping[_id]) {\r\n//             return true;\r\n//         }\r\n//     }\r\n//     function isRegistered(address _id) public view returns (bool) {\r\n//         if (RegisteredAddressMapping[_id]) {\r\n//             return true;\r\n//         }\r\n//     }\r\n\r\n//     function addLand(\r\n//         string memory _landAddress,\r\n//         string memory _area,\r\n//         string memory _city,\r\n//         string memory _district,\r\n//         string memory _country,\r\n//         uint _landPrice,\r\n//         string memory _propertyID\r\n//     ) public {\r\n//         require(isSeller(msg.sender), \"Only sellers can add lands.\");\r\n//         require(\r\n//             !propertyIDExists[_propertyID],\r\n//             \"Property ID is already registered.\"\r\n//         );\r\n\r\n//         landsCount++;\r\n//         lands[landsCount] = Landreg(\r\n//             landsCount,\r\n//             _landAddress,\r\n//             _area,\r\n//             _city,\r\n//             _district,\r\n//             _country,\r\n//             _landPrice,\r\n//             _propertyID\r\n//         );\r\n//         landApprovalStatus[landsCount] = false; // Initially not approved\r\n//         LandOwner[landsCount] = msg.sender;\r\n//         propertyIDExists[_propertyID] = true; // Mark this property ID as registered\r\n\r\n//         RequestStatus[landsCount] = false;\r\n//         RequestedLands[landsCount] = false;\r\n//         saleApprovalStatus[landsCount] = false;\r\n\r\n//         // Emit an event that land has been added\r\n//         emit LandAdded(landsCount, msg.sender);\r\n//     }\r\n\r\n//     // Function for the land inspector to approve land\r\n//     function approveLand(uint _landId) public onlyLandInspector {\r\n//         require(!landApprovalStatus[_landId], \"Land has already been approved\");\r\n//         landApprovalStatus[_landId] = true;\r\n\r\n//         // Emit an event that land has been approved\r\n//         emit LandApproved(_landId);\r\n//     }\r\n\r\n//     function getLandDetails(\r\n//         uint _landId\r\n//     )\r\n//         public\r\n//         view\r\n//         returns (\r\n//             uint,\r\n//             string memory,\r\n//             string memory,\r\n//             string memory,\r\n//             string memory,\r\n//             string memory,\r\n//             uint,\r\n//             string memory\r\n//         )\r\n//     {\r\n//         require(\r\n//             _landId > 0 && _landId <= landsCount,\r\n//             \"Land ID is out of bounds\"\r\n//         );\r\n\r\n//         Landreg memory land = lands[_landId];\r\n//         return (\r\n//             land.id,\r\n//             land.landAddress,\r\n//             land.area,\r\n//             land.city,\r\n//             land.district,\r\n//             land.country,\r\n//             land.landPrice,\r\n//             land.propertyID\r\n//         );\r\n//     }\r\n\r\n//     //registration of seller\r\n//     function registerSeller(\r\n//         string memory _name,\r\n//         uint _age,\r\n//         string memory _HKID\r\n//     ) public {\r\n//         //require that Seller is not already registered\r\n//         require(!RegisteredAddressMapping[msg.sender]);\r\n\r\n//         RegisteredAddressMapping[msg.sender] = true;\r\n//         RegisteredSellerMapping[msg.sender] = true;\r\n//         sellersCount++;\r\n//         SellerMapping[msg.sender] = Seller(msg.sender, _name, _age, _HKID);\r\n//         sellers.push(msg.sender);\r\n//         emit Registration(msg.sender);\r\n//     }\r\n\r\n//     function updateSeller(\r\n//         string memory _name,\r\n//         uint _age,\r\n//         string memory _HKID\r\n//     ) public {\r\n//         //require that Seller is already registered\r\n//         require(\r\n//             RegisteredAddressMapping[msg.sender] &&\r\n//                 (SellerMapping[msg.sender].id == msg.sender)\r\n//         );\r\n\r\n//         SellerMapping[msg.sender].name = _name;\r\n//         SellerMapping[msg.sender].age = _age;\r\n//         SellerMapping[msg.sender].HKID = _HKID;\r\n//     }\r\n\r\n//     function getSeller() public view returns (address[] memory) {\r\n//         return (sellers);\r\n//     }\r\n\r\n//     function getSellerDetails(\r\n//         address i\r\n//     ) public view returns (string memory, uint, string memory) {\r\n//         return (\r\n//             SellerMapping[i].name,\r\n//             SellerMapping[i].age,\r\n//             SellerMapping[i].HKID\r\n//         );\r\n//     }\r\n\r\n//     function registerBuyer(\r\n//         string memory _name,\r\n//         uint _age,\r\n//         string memory _city,\r\n//         string memory _HKID,\r\n//         string memory _email\r\n//     ) public {\r\n//         //require that Buyer is not already registered\r\n//         require(!RegisteredAddressMapping[msg.sender]);\r\n\r\n//         RegisteredAddressMapping[msg.sender] = true;\r\n//         RegisteredBuyerMapping[msg.sender] = true;\r\n//         buyersCount++;\r\n//         BuyerMapping[msg.sender] = Buyer(\r\n//             msg.sender,\r\n//             _name,\r\n//             _age,\r\n//             _city,\r\n//             _HKID,\r\n//             _email\r\n//         );\r\n//         buyers.push(msg.sender);\r\n\r\n//         emit Registration(msg.sender);\r\n//     }\r\n\r\n//     function updateBuyer(\r\n//         string memory _name,\r\n//         uint _age,\r\n//         string memory _city,\r\n//         string memory _email,\r\n//         string memory _HKID\r\n//     ) public {\r\n//         //require that Buyer is already registered\r\n//         require(\r\n//             RegisteredAddressMapping[msg.sender] &&\r\n//                 (BuyerMapping[msg.sender].id == msg.sender)\r\n//         );\r\n\r\n//         BuyerMapping[msg.sender].name = _name;\r\n//         BuyerMapping[msg.sender].age = _age;\r\n//         BuyerMapping[msg.sender].city = _city;\r\n//         BuyerMapping[msg.sender].HKID = _HKID;\r\n//         BuyerMapping[msg.sender].email = _email;\r\n//     }\r\n\r\n//     function getBuyer() public view returns (address[] memory) {\r\n//         return (buyers);\r\n//     }\r\n\r\n//     function getBuyerDetails(\r\n//         address i\r\n//     )\r\n//         public\r\n//         view\r\n//         returns (\r\n//             string memory,\r\n//             string memory,\r\n//             string memory,\r\n//             uint,\r\n//             string memory\r\n//         )\r\n//     {\r\n//         return (\r\n//             BuyerMapping[i].name,\r\n//             BuyerMapping[i].city,\r\n//             BuyerMapping[i].email,\r\n//             BuyerMapping[i].age,\r\n//             BuyerMapping[i].HKID\r\n//         );\r\n//     }\r\n\r\n//     function requestLand(address _sellerId, uint _landId) public {\r\n//         require(isBuyer(msg.sender));\r\n\r\n//         requestsCount++;\r\n//         RequestsMapping[requestsCount] = LandRequest(\r\n//             requestsCount,\r\n//             _sellerId,\r\n//             msg.sender,\r\n//             _landId\r\n//         );\r\n//         RequestStatus[requestsCount] = false;\r\n//         RequestedLands[requestsCount] = true;\r\n\r\n//         emit Landrequested(_sellerId);\r\n//     }\r\n\r\n//     // Function for the land inspector to approve the sale\r\n//     function approveSale(uint _reqId) public onlyLandInspector {\r\n//         require(\r\n//             RequestedLands[RequestsMapping[_reqId].landId],\r\n//             \"Land has not been requested\"\r\n//         );\r\n//         require(!saleApprovalStatus[_reqId], \"Sale has already been approved\");\r\n\r\n//         RequestStatus[_reqId] = true;\r\n//         saleApprovalStatus[_reqId] = true; // Mark sale as approved by the land inspector\r\n\r\n//         // Emit an event that sale has been approved\r\n//         emit SaleApproved(\r\n//             RequestsMapping[_reqId].landId,\r\n//             RequestsMapping[_reqId].sellerId,\r\n//             RequestsMapping[_reqId].buyerId\r\n//         );\r\n//     }\r\n\r\n//     function getRequestDetails(\r\n//         uint i\r\n//     ) public view returns (address, address, uint, bool) {\r\n//         return (\r\n//             RequestsMapping[i].sellerId,\r\n//             RequestsMapping[i].buyerId,\r\n//             RequestsMapping[i].landId,\r\n//             RequestStatus[i]\r\n//         );\r\n//     }\r\n\r\n//     function isLandApproved(uint _landId) public view returns (bool) {\r\n//         return landApprovalStatus[_landId];\r\n//     }\r\n\r\n//     function isSaleApproved(uint _reqId) public view returns (bool) {\r\n//         return saleApprovalStatus[_reqId];\r\n//     }\r\n\r\n//     function isRequested(uint _id) public view returns (bool) {\r\n//         if (RequestedLands[_id]) {\r\n//             return true;\r\n//         } else {\r\n//             return false;\r\n//         }\r\n//     }\r\n\r\n//     function isApproved(uint _id) public view returns (bool) {\r\n//         if (RequestStatus[_id]) {\r\n//             return true;\r\n//         } else {\r\n//             return false;\r\n//         }\r\n//     }\r\n\r\n//     function approveRequest(uint _reqId) public {\r\n//         require(isSeller(msg.sender));\r\n\r\n//         RequestStatus[_reqId] = true;\r\n//     }\r\n\r\n//     function isPaid(uint _landId) public view returns (bool) {\r\n//         if (PaymentReceived[_landId]) {\r\n//             return true;\r\n//         }\r\n//     }\r\n\r\n//     function payment(address payable _seller, uint _landId) public payable {\r\n//         require(LandOwner[_landId] == _seller, \"Seller does not own the land\");\r\n//         require(msg.value == lands[_landId].landPrice, \"Incorrect payment amount\");\r\n//         require(isBuyer(msg.sender), \"Only registered buyers can make payments\");\r\n//         require(landApprovalStatus[_landId], \"Land has not been approved by the inspector\");\r\n//         // Find the request ID associated with this land and buyer\r\n//         uint _reqId = findRequest(_seller, _landId, msg.sender);\r\n//         require(saleApprovalStatus[_reqId], \"Sale has not beenapproved by the inspector\");\r\n//         require(LandOwner[_landId] == _seller, \"Seller does not own the land.\");\r\n//         require(\r\n//             msg.value == lands[_landId].landPrice,\r\n//             \"Incorrect payment amount.\"\r\n//         );\r\n//         require(\r\n//             isBuyer(msg.sender),\r\n//             \"Only registered buyers can make payments.\"\r\n//         );\r\n\r\n//         // Transfer the land price to the seller\r\n//         _seller.transfer(msg.value);\r\n\r\n//         // Update the land ownership\r\n//         LandOwner[_landId] = msg.sender;\r\n\r\n//         // Mark the payment as received\r\n//         PaymentReceived[_landId] = true;\r\n\r\n//         // Emit an event that payment has been made\r\n//         emit PaymentMade(_landId, _seller, msg.sender);\r\n\r\n//         // Emit an event, if you have one for successful payment/transfer\r\n//         emit LandOwnershipTransferred(_landId, _seller, msg.sender);\r\n//     }\r\n\r\n//     // Helper function to find the request ID based on land and buyer\r\n//     function findRequest(address _seller, uint _landId, address _buyer) internal view returns (uint) {\r\n//         for (uint i = 1; i <= requestsCount; i++) {\r\n//             if (RequestsMapping[i].sellerId == _seller && RequestsMapping[i].buyerId == _buyer && RequestsMapping[i].landId == _landId) {\r\n//                 return i;\r\n//             }\r\n//         }\r\n//         revert(\"Request not found\");\r\n//     }\r\n// }\r\n\r\n// SPDX-License-Identifier: MIT\r\npragma solidity >=0.5.2;\r\npragma experimental ABIEncoderV2;\r\n\r\ncontract LandToken {\r\n    string public name = \"LandToken\";\r\n    string public symbol = \"LND\";\r\n    uint8 public decimals = 18;\r\n    uint256 public totalSupply;\r\n\r\n    mapping(address => uint256) public balanceOf;\r\n    mapping(address => mapping(address => uint256)) public allowance;\r\n\r\n    event Transfer(address indexed from, address indexed to, uint256 value);\r\n    event Approval(address indexed owner, address indexed spender, uint256 value);\r\n\r\n    // Mint new tokens\r\n    function mint(address to, uint256 amount) public {\r\n        totalSupply += amount;\r\n        balanceOf[to] += amount;\r\n        emit Transfer(address(0), to, amount);\r\n    }\r\n\r\n    // Transfer token to a specified address\r\n    function transfer(address to, uint256 value) public returns (bool success) {\r\n        require(balanceOf[msg.sender] >= value, \"Insufficient balance\");\r\n        balanceOf[msg.sender] -= value;\r\n        balanceOf[to] += value;\r\n        emit Transfer(msg.sender, to, value);\r\n        return true;\r\n    }\r\n\r\n    // Approve spender to spend specified amount\r\n    function approve(address spender, uint256 value) public returns (bool success) {\r\n        allowance[msg.sender][spender] = value;\r\n        emit Approval(msg.sender, spender, value);\r\n        return true;\r\n    }\r\n\r\n    // Transfer from one address to another using allowance\r\n    function transferFrom(address from, address to, uint256 value) public returns (bool success) {\r\n        require(balanceOf[from] >= value, \"Insufficient balance\");\r\n        require(allowance[from][msg.sender] >= value, \"Allowance exceeded\");\r\n        balanceOf[from] -= value;\r\n        balanceOf[to] += value;\r\n        allowance[from][msg.sender] -= value;\r\n        emit Transfer(from, to, value);\r\n        return true;\r\n    }\r\n}\r\n\r\ncontract Land {\r\n    struct Landreg {\r\n        uint id;\r\n        string landAddress;\r\n        string area;\r\n        string city;\r\n        string district;\r\n        string country;\r\n        uint landPrice;\r\n        string propertyID;\r\n    }\r\n\r\n    struct Buyer {\r\n        address id;\r\n        string name;\r\n        uint age;\r\n        string city;\r\n        string HKID;\r\n        string email;\r\n    }\r\n\r\n    struct Seller {\r\n        address id;\r\n        string name;\r\n        uint age;\r\n        string HKID;\r\n    }\r\n\r\n    struct LandRequest {\r\n        uint reqId;\r\n        address sellerId;\r\n        address buyerId;\r\n        uint landId;\r\n    }\r\n\r\n    address public landInspector;\r\n    LandToken public landToken;\r\n\r\n    // Key-value pairs\r\n    mapping(uint => Landreg) public lands;\r\n    mapping(address => Seller) public SellerMapping;\r\n    mapping(address => Buyer) public BuyerMapping;\r\n    mapping(uint => LandRequest) public RequestsMapping;\r\n\r\n    // New mapping to track unique property IDs\r\n    mapping(string => bool) private propertyIDExists;\r\n\r\n    mapping(address => bool) public RegisteredAddressMapping;\r\n    mapping(address => bool) public RegisteredSellerMapping;\r\n    mapping(address => bool) public RegisteredBuyerMapping;\r\n    mapping(uint => address) public LandOwner;\r\n    mapping(uint => bool) public RequestStatus;\r\n    mapping(uint => bool) public RequestedLands;\r\n    mapping(uint => bool) public PaymentReceived;\r\n\r\n    mapping(uint => bool) public landApprovalStatus; // Tracks if land is approved by the land inspector\r\n    mapping(uint => bool) public saleApprovalStatus; // Tracks if the sale is approved by the land inspector\r\n\r\n    address[] public sellers;\r\n    address[] public buyers;\r\n\r\n    uint public landsCount;\r\n    uint public sellersCount;\r\n    uint public buyersCount;\r\n    uint public requestsCount;\r\n\r\n    event Registration(address _registrationId);\r\n    event AddingLand(uint indexed _landId);\r\n    event Landrequested(address _sellerId);\r\n    event requestApproved(address _buyerId);\r\n    event LandOwnershipTransferred(\r\n        uint indexed landId,\r\n        address indexed seller,\r\n        address indexed buyer\r\n    );\r\n\r\n    event LandAdded(uint indexed _landId, address indexed _seller);\r\n    event LandApproved(uint indexed _landId);\r\n    event SaleRequested(\r\n        uint indexed _landId,\r\n        address indexed _seller,\r\n        address indexed _buyer\r\n    );\r\n    event SaleApproved(\r\n        uint indexed _landId,\r\n        address indexed _seller,\r\n        address indexed _buyer\r\n    );\r\n    event PaymentMade(\r\n        uint indexed _landId,\r\n        address indexed seller,\r\n        address indexed buyer\r\n    );\r\n\r\n    // Constructor to set the deployer as the initial land inspector\r\n    constructor() public {\r\n        landInspector = msg.sender;\r\n        landToken = new LandToken(); // Deploy the LandToken contract\r\n    }\r\n\r\n    // Modifier to check if the caller is the land inspector\r\n    modifier onlyLandInspector() {\r\n        require(\r\n            msg.sender == landInspector,\r\n            \"Caller is not the land inspector\"\r\n        );\r\n        _;\r\n    }\r\n\r\n    function getLandsCount() public view returns (uint) {\r\n        return landsCount;\r\n    }\r\n\r\n    function getBuyersCount() public view returns (uint) {\r\n        return buyersCount;\r\n    }\r\n\r\n    function getSellersCount() public view returns (uint) {\r\n        return sellersCount;\r\n    }\r\n\r\n    function getRequestsCount() public view returns (uint) {\r\n        return requestsCount;\r\n    }\r\n    function getArea(uint i) public view returns (string memory) {\r\n        return lands[i].area;\r\n    }\r\n    function getCity(uint i) public view returns (string memory) {\r\n        return lands[i].city;\r\n    }\r\n    function getDistrict(uint i) public view returns (string memory) {\r\n        return lands[i].district;\r\n    }\r\n    function getPrice(uint i) public view returns (uint) {\r\n        return lands[i].landPrice;\r\n    }\r\n    function getPID(uint i) public view returns (string memory) {\r\n        return lands[i].propertyID;\r\n    }\r\n\r\n    function getLandOwner(uint id) public view returns (address) {\r\n        return LandOwner[id];\r\n    }\r\n\r\n    function isSeller(address _id) public view returns (bool) {\r\n        if (RegisteredSellerMapping[_id]) {\r\n            return true;\r\n        }\r\n        return false;\r\n    }\r\n\r\n    function isBuyer(address _id) public view returns (bool) {\r\n        if (RegisteredBuyerMapping[_id]) {\r\n            return true;\r\n        }\r\n        return false;\r\n    }\r\n    function isRegistered(address _id) public view returns (bool) {\r\n        if (RegisteredAddressMapping[_id]) {\r\n            return true;\r\n        }\r\n        return false;\r\n    }\r\n\r\n    function addLand(\r\n        string memory _landAddress,\r\n        string memory _area,\r\n        string memory _city,\r\n        string memory _district,\r\n        string memory _country,\r\n        uint _landPrice,\r\n        string memory _propertyID\r\n    ) public {\r\n        require(isSeller(msg.sender), \"Only sellers can add lands.\");\r\n        require(\r\n            !propertyIDExists[_propertyID],\r\n            \"Property ID is already registered.\"\r\n        );\r\n\r\n        landsCount++;\r\n        lands[landsCount] = Landreg(\r\n            landsCount,\r\n            _landAddress,\r\n            _area,\r\n            _city,\r\n            _district,\r\n            _country,\r\n            _landPrice,\r\n            _propertyID\r\n        );\r\n        landApprovalStatus[landsCount] = false; // Initially not approved\r\n        LandOwner[landsCount] = msg.sender;\r\n        propertyIDExists[_propertyID] = true; // Mark this property ID as registered\r\n\r\n        RequestStatus[landsCount] = false;\r\n        RequestedLands[landsCount] = false;\r\n        saleApprovalStatus[landsCount] = false;\r\n\r\n        // Mint tokens representing land ownership to the seller\r\n        // Here, mint tokens equal to 1 token * 10^18 as a representation of ownership (1 token per land)\r\n        landToken.mint(msg.sender, 1 * (10 ** uint256(landToken.decimals())));\r\n\r\n        // Emit an event that land has been added\r\n        emit LandAdded(landsCount, msg.sender);\r\n    }\r\n\r\n    // Function for the land inspector to approve land\r\n    function approveLand(uint _landId) public onlyLandInspector {\r\n        require(!landApprovalStatus[_landId], \"Land has already been approved\");\r\n        landApprovalStatus[_landId] = true;\r\n\r\n        // Emit an event that land has been approved\r\n        emit LandApproved(_landId);\r\n    }\r\n\r\n    function getLandDetails(\r\n        uint _landId\r\n    )\r\n        public\r\n        view\r\n        returns (\r\n            uint,\r\n            string memory,\r\n            string memory,\r\n            string memory,\r\n            string memory,\r\n            string memory,\r\n            uint,\r\n            string memory\r\n        )\r\n    {\r\n        require(\r\n            _landId > 0 && _landId <= landsCount,\r\n            \"Land ID is out of bounds\"\r\n        );\r\n\r\n        Landreg memory land = lands[_landId];\r\n        return (\r\n            land.id,\r\n            land.landAddress,\r\n            land.area,\r\n            land.city,\r\n            land.district,\r\n            land.country,\r\n            land.landPrice,\r\n            land.propertyID\r\n        );\r\n    }\r\n\r\n    // Registration of seller\r\n    function registerSeller(\r\n        string memory _name,\r\n        uint _age,\r\n        string memory _HKID\r\n    ) public {\r\n        //require that Seller is not already registered\r\n        require(!RegisteredAddressMapping[msg.sender]);\r\n\r\n        RegisteredAddressMapping[msg.sender] = true;\r\n        RegisteredSellerMapping[msg.sender] = true;\r\n        sellersCount++;\r\n        SellerMapping[msg.sender] = Seller(msg.sender, _name, _age, _HKID);\r\n        sellers.push(msg.sender);\r\n        emit Registration(msg.sender);\r\n    }\r\n\r\n    function updateSeller(\r\n        string memory _name,\r\n        uint _age,\r\n        string memory _HKID\r\n    ) public {\r\n        //require that Seller is already registered\r\n        require(\r\n            RegisteredAddressMapping[msg.sender] &&\r\n                (SellerMapping[msg.sender].id == msg.sender)\r\n        );\r\n\r\n        SellerMapping[msg.sender].name = _name;\r\n        SellerMapping[msg.sender].age = _age;\r\n        SellerMapping[msg.sender].HKID = _HKID;\r\n    }\r\n\r\n    function getSeller() public view returns (address[] memory) {\r\n        return (sellers);\r\n    }\r\n\r\n    function getSellerDetails(\r\n        address i\r\n    ) public view returns (string memory, uint, string memory) {\r\n        return (\r\n            SellerMapping[i].name,\r\n            SellerMapping[i].age,\r\n            SellerMapping[i].HKID\r\n        );\r\n    }\r\n\r\n    function registerBuyer(\r\n        string memory _name,\r\n        uint _age,\r\n        string memory _city,\r\n        string memory _HKID,\r\n        string memory _email\r\n    ) public {\r\n        //require that Buyer is not already registered\r\n        require(!RegisteredAddressMapping[msg.sender]);\r\n\r\n        RegisteredAddressMapping[msg.sender] = true;\r\n        RegisteredBuyerMapping[msg.sender] = true;\r\n        buyersCount++;\r\n        BuyerMapping[msg.sender] = Buyer(\r\n            msg.sender,\r\n            _name,\r\n            _age,\r\n            _city,\r\n            _HKID,\r\n            _email\r\n        );\r\n        buyers.push(msg.sender);\r\n\r\n        emit Registration(msg.sender);\r\n    }\r\n\r\n    function updateBuyer(\r\n        string memory _name,\r\n        uint _age,\r\n        string memory _city,\r\n        string memory _email,\r\n        string memory _HKID\r\n    ) public {\r\n        //require that Buyer is already registered\r\n        require(\r\n            RegisteredAddressMapping[msg.sender] &&\r\n                (BuyerMapping[msg.sender].id == msg.sender)\r\n        );\r\n\r\n        BuyerMapping[msg.sender].name = _name;\r\n        BuyerMapping[msg.sender].age = _age;\r\n        BuyerMapping[msg.sender].city = _city;\r\n        BuyerMapping[msg.sender].HKID = _HKID;\r\n        BuyerMapping[msg.sender].email = _email;\r\n    }\r\n\r\n    function getBuyer() public view returns (address[] memory) {\r\n        return (buyers);\r\n    }\r\n\r\n    function getBuyerDetails(\r\n        address i\r\n    )\r\n        public\r\n        view\r\n        returns (\r\n            string memory,\r\n            string memory,\r\n            string memory,\r\n            uint,\r\n            string memory\r\n        )\r\n    {\r\n        return (\r\n            BuyerMapping[i].name,\r\n            BuyerMapping[i].city,\r\n            BuyerMapping[i].email,\r\n            BuyerMapping[i].age,\r\n            BuyerMapping[i].HKID\r\n        );\r\n    }\r\n\r\n    function requestLand(address _sellerId, uint _landId) public {\r\n        require(isBuyer(msg.sender));\r\n\r\n        requestsCount++;\r\n        RequestsMapping[requestsCount] = LandRequest(\r\n            requestsCount,\r\n            _sellerId,\r\n            msg.sender,\r\n            _landId\r\n        );\r\n        RequestStatus[requestsCount] = false;\r\n        RequestedLands[requestsCount] = true;\r\n\r\n        emit Landrequested(_sellerId);\r\n    }\r\n\r\n    // Function for the land inspector to approve the sale\r\n    function approveSale(uint _reqId) public onlyLandInspector {\r\n        require(\r\n            RequestedLands[RequestsMapping[_reqId].landId],\r\n            \"Land has not been requested\"\r\n        );\r\n        require(!saleApprovalStatus[_reqId], \"Sale has already been approved\");\r\n\r\n        RequestStatus[_reqId] = true;\r\n        saleApprovalStatus[_reqId] = true; // Mark sale as approved by the land inspector\r\n\r\n        // Emit an event that sale has been approved\r\n        emit SaleApproved(\r\n            RequestsMapping[_reqId].landId,\r\n            RequestsMapping[_reqId].sellerId,\r\n            RequestsMapping[_reqId].buyerId\r\n        );\r\n    }\r\n\r\n    function getRequestDetails(\r\n        uint i\r\n    ) public view returns (address, address, uint, bool) {\r\n        return (\r\n            RequestsMapping[i].sellerId,\r\n            RequestsMapping[i].buyerId,\r\n            RequestsMapping[i].landId,\r\n            RequestStatus[i]\r\n        );\r\n    }\r\n\r\n    function isLandApproved(uint _landId) public view returns (bool) {\r\n        return landApprovalStatus[_landId];\r\n    }\r\n\r\n    function isSaleApproved(uint _reqId) public view returns (bool) {\r\n        return saleApprovalStatus[_reqId];\r\n    }\r\n\r\n    function isRequested(uint _id) public view returns (bool) {\r\n        if (RequestedLands[_id]) {\r\n            return true;\r\n        } else {\r\n            return false;\r\n        }\r\n    }\r\n\r\n    function isApproved(uint _id) public view returns (bool) {\r\n        if (RequestStatus[_id]) {\r\n            return true;\r\n        } else {\r\n            return false;\r\n        }\r\n    }\r\n\r\n    function approveRequest(uint _reqId) public {\r\n        require(isSeller(msg.sender));\r\n\r\n        RequestStatus[_reqId] = true;\r\n    }\r\n\r\n    function isPaid(uint _landId) public view returns (bool) {\r\n        if (PaymentReceived[_landId]) {\r\n            return true;\r\n        }\r\n        return false;\r\n    }\r\n\r\n    function payment(address payable _seller, uint _landId) public payable {\r\n        require(LandOwner[_landId] == _seller, \"Seller does not own the land\");\r\n        require(msg.value == lands[_landId].landPrice, \"Incorrect payment amount\");\r\n        require(isBuyer(msg.sender), \"Only registered buyers can make payments\");\r\n        require(landApprovalStatus[_landId], \"Land has not been approved by the inspector\");\r\n\r\n        // Find the request ID associated with this land and buyer\r\n        uint _reqId = findRequest(_seller, _landId, msg.sender);\r\n        require(saleApprovalStatus[_reqId], \"Sale has not been approved by the inspector\");\r\n\r\n        // Transfer tokens from the buyer to the seller\r\n        bool success = landToken.transferFrom(msg.sender, _seller, 1 * (10 ** uint256(landToken.decimals())));\r\n        require(success, \"Token transfer failed\");\r\n\r\n        // Update the land ownership\r\n        LandOwner[_landId] = msg.sender;\r\n\r\n        // Mark the payment as received\r\n        PaymentReceived[_landId] = true;\r\n\r\n        // Transfer the payment (ether) to seller\r\n        _seller.transfer(msg.value);\r\n\r\n        // Emit an event that payment has been made\r\n        emit PaymentMade(_landId, _seller, msg.sender);\r\n\r\n        // Emit an event for successful land ownership transfer\r\n        emit LandOwnershipTransferred(_landId, _seller, msg.sender);\r\n    }\r\n\r\n    // Helper function to find the request ID based on land and buyer\r\n    function findRequest(address _seller, uint _landId, address _buyer) internal view returns (uint) {\r\n        for (uint i = 1; i <= requestsCount; i++) {\r\n            if (RequestsMapping[i].sellerId == _seller && RequestsMapping[i].buyerId == _buyer && RequestsMapping[i].landId == _landId) {\r\n                return i;\r\n            }\r\n        }\r\n        revert(\"Request not found\");\r\n    }\r\n}\r\n",
  "sourcePath": "C:\\Users\\HP\\Desktop\\PLOT-CHAIN\\web3\\contracts\\Land.sol",
  "compiler": {
    "name": "solc",
    "version": "0.5.17+commit.d19bba13.Emscripten.clang"
  },
  "schemaVersion": "3.4.16",
  "updatedAt": "2025-05-10T06:00:04.354Z",
  "devdoc": {
    "methods": {}
  },
  "userdoc": {
    "methods": {}
  }
}