{
  "contractName": "LandToken",
  "abi": [
    {
      "anonymous": false,
      "inputs": [
        {
          "indexed": true,
          "internalType": "address",
          "name": "owner",
          "type": "address"
        },
        {
          "indexed": true,
          "internalType": "address",
          "name": "spender",
          "type": "address"
        },
        {
          "indexed": false,
          "internalType": "uint256",
          "name": "value",
          "type": "uint256"
        }
      ],
      "name": "Approval",
      "type": "event"
    },
    {
      "anonymous": false,
      "inputs": [
        {
          "indexed": true,
          "internalType": "address",
          "name": "from",
          "type": "address"
        },
        {
          "indexed": true,
          "internalType": "address",
          "name": "to",
          "type": "address"
        },
        {
          "indexed": false,
          "internalType": "uint256",
          "name": "value",
          "type": "uint256"
        }
      ],
      "name": "Transfer",
      "type": "event"
    },
    {
      "constant": true,
      "inputs": [
        {
          "internalType": "address",
          "name": "",
          "type": "address"
        },
        {
          "internalType": "address",
          "name": "",
          "type": "address"
        }
      ],
      "name": "allowance",
      "outputs": [
        {
          "internalType": "uint256",
          "name": "",
          "type": "uint256"
        }
      ],
      "payable": false,
      "stateMutability": "view",
      "type": "function"
    },
    {
      "constant": true,
      "inputs": [
        {
          "internalType": "address",
          "name": "",
          "type": "address"
        }
      ],
      "name": "balanceOf",
      "outputs": [
        {
          "internalType": "uint256",
          "name": "",
          "type": "uint256"
        }
      ],
      "payable": false,
      "stateMutability": "view",
      "type": "function"
    },
    {
      "constant": true,
      "inputs": [],
      "name": "decimals",
      "outputs": [
        {
          "internalType": "uint8",
          "name": "",
          "type": "uint8"
        }
      ],
      "payable": false,
      "stateMutability": "view",
      "type": "function"
    },
    {
      "constant": true,
      "inputs": [],
      "name": "name",
      "outputs": [
        {
          "internalType": "string",
          "name": "",
          "type": "string"
        }
      ],
      "payable": false,
      "stateMutability": "view",
      "type": "function"
    },
    {
      "constant": true,
      "inputs": [],
      "name": "symbol",
      "outputs": [
        {
          "internalType": "string",
          "name": "",
          "type": "string"
        }
      ],
      "payable": false,
      "stateMutability": "view",
      "type": "function"
    },
    {
      "constant": true,
      "inputs": [],
      "name": "totalSupply",
      "outputs": [
        {
          "internalType": "uint256",
          "name": "",
          "type": "uint256"
        }
      ],
      "payable": false,
      "stateMutability": "view",
      "type": "function"
    },
    {
      "constant": false,
      "inputs": [
        {
          "internalType": "address",
          "name": "to",
          "type": "address"
        },
        {
          "internalType": "uint256",
          "name": "amount",
          "type": "uint256"
        }
      ],
      "name": "mint",
      "outputs": [],
      "payable": false,
      "stateMutability": "nonpayable",
      "type": "function"
    },
    {
      "constant": false,
      "inputs": [
        {
          "internalType": "address",
          "name": "to",
          "type": "address"
        },
        {
          "internalType": "uint256",
          "name": "value",
          "type": "uint256"
        }
      ],
      "name": "transfer",
      "outputs": [
        {
          "internalType": "bool",
          "name": "success",
          "type": "bool"
        }
      ],
      "payable": false,
      "stateMutability": "nonpayable",
      "type": "function"
    },
    {
      "constant": false,
      "inputs": [
        {
          "internalType": "address",
          "name": "spender",
          "type": "address"
        },
        {
          "internalType": "uint256",
          "name": "value",
          "type": "uint256"
        }
      ],
      "name": "approve",
      "outputs": [
        {
          "internalType": "bool",
          "name": "success",
          "type": "bool"
        }
      ],
      "payable": false,
      "stateMutability": "nonpayable",
      "type": "function"
    },
    {
      "constant": false,
      "inputs": [
        {
          "internalType": "address",
          "name": "from",
          "type": "address"
        },
        {
          "internalType": "address",
          "name": "to",
          "type": "address"
        },
        {
          "internalType": "uint256",
          "name": "value",
          "type": "uint256"
        }
      ],
      "name": "transferFrom",
      "outputs": [
        {
          "internalType": "bool",
          "name": "success",
          "type": "bool"
        }
      ],
      "payable": false,
      "stateMutability": "nonpayable",
      "type": "function"
    }
  ],
  "bytecode": "0x60806040526040518060400160405280600981526020017f4c616e64546f6b656e00000000000000000000000000000000000000000000008152506000908051906020019061004f9291906100ca565b506040518060400160405280600381526020017f4c4e4400000000000000000000000000000000000000000000000000000000008152506001908051906020019061009b9291906100ca565b506012600260006101000a81548160ff021916908360ff1602179055503480156100c457600080fd5b5061016f565b828054600181600116156101000203166002900490600052602060002090601f016020900481019282601f1061010b57805160ff1916838001178555610139565b82800160010185558215610139579182015b8281111561013857825182559160200191906001019061011d565b5b509050610146919061014a565b5090565b61016c91905b80821115610168576000816000905550600101610150565b5090565b90565b610daf8061017e6000396000f3fe608060405234801561001057600080fd5b506004361061009e5760003560e01c806340c10f191161006657806340c10f191461015d57806370a082311461017957806395d89b41146101a9578063a9059cbb146101c7578063dd62ed3e146101f75761009e565b806306fdde03146100a3578063095ea7b3146100c157806318160ddd146100f157806323b872dd1461010f578063313ce5671461013f575b600080fd5b6100ab610227565b6040516100b89190610bf1565b60405180910390f35b6100db60048036036100d69190810190610ab4565b6102c5565b6040516100e89190610bd6565b60405180910390f35b6100f96103b7565b6040516101069190610c53565b60405180910390f35b61012960048036036101249190810190610a65565b6103bd565b6040516101369190610bd6565b60405180910390f35b610147610694565b6040516101549190610c6e565b60405180910390f35b61017760048036036101729190810190610ab4565b6106a7565b005b610193600480360361018e9190810190610a00565b61076e565b6040516101a09190610c53565b60405180910390f35b6101b1610786565b6040516101be9190610bf1565b60405180910390f35b6101e160048036036101dc9190810190610ab4565b610824565b6040516101ee9190610bd6565b60405180910390f35b610211600480360361020c9190810190610a29565b6109b1565b60405161021e9190610c53565b60405180910390f35b60008054600181600116156101000203166002900480601f0160208091040260200160405190810160405280929190818152602001828054600181600116156101000203166002900480156102bd5780601f10610292576101008083540402835291602001916102bd565b820191906000526020600020905b8154815290600101906020018083116102a057829003601f168201915b505050505081565b600081600560003373ffffffffffffffffffffffffffffffffffffffff1673ffffffffffffffffffffffffffffffffffffffff16815260200190815260200160002060008573ffffffffffffffffffffffffffffffffffffffff1673ffffffffffffffffffffffffffffffffffffffff168152602001908152602001600020819055508273ffffffffffffffffffffffffffffffffffffffff163373ffffffffffffffffffffffffffffffffffffffff167f8c5be1e5ebec7d5bd14f71427d1e84f3dd0314c0f7b2291e5b200ac8c7c3b925846040516103a59190610c53565b60405180910390a36001905092915050565b60035481565b600081600460008673ffffffffffffffffffffffffffffffffffffffff1673ffffffffffffffffffffffffffffffffffffffff168152602001908152602001600020541015610441576040517f08c379a000000000000000000000000000000000000000000000000000000000815260040161043890610c33565b60405180910390fd5b81600560008673ffffffffffffffffffffffffffffffffffffffff1673ffffffffffffffffffffffffffffffffffffffff16815260200190815260200160002060003373ffffffffffffffffffffffffffffffffffffffff1673ffffffffffffffffffffffffffffffffffffffff168152602001908152602001600020541015610500576040517f08c379a00000000000000000000000000000000000000000000000000000000081526004016104f790610c13565b60405180910390fd5b81600460008673ffffffffffffffffffffffffffffffffffffffff1673ffffffffffffffffffffffffffffffffffffffff1681526020019081526020016000206000828254039250508190555081600460008573ffffffffffffffffffffffffffffffffffffffff1673ffffffffffffffffffffffffffffffffffffffff1681526020019081526020016000206000828254019250508190555081600560008673ffffffffffffffffffffffffffffffffffffffff1673ffffffffffffffffffffffffffffffffffffffff16815260200190815260200160002060003373ffffffffffffffffffffffffffffffffffffffff1673ffffffffffffffffffffffffffffffffffffffff168152602001908152602001600020600082825403925050819055508273ffffffffffffffffffffffffffffffffffffffff168473ffffffffffffffffffffffffffffffffffffffff167fddf252ad1be2c89b69c2b068fc378daa952ba7f163c4a11628f55a4df523b3ef846040516106819190610c53565b60405180910390a3600190509392505050565b600260009054906101000a900460ff1681565b8060036000828254019250508190555080600460008473ffffffffffffffffffffffffffffffffffffffff1673ffffffffffffffffffffffffffffffffffffffff168152602001908152602001600020600082825401925050819055508173ffffffffffffffffffffffffffffffffffffffff16600073ffffffffffffffffffffffffffffffffffffffff167fddf252ad1be2c89b69c2b068fc378daa952ba7f163c4a11628f55a4df523b3ef836040516107629190610c53565b60405180910390a35050565b60046020528060005260406000206000915090505481565b60018054600181600116156101000203166002900480601f01602080910402602001604051908101604052809291908181526020018280546001816001161561010002031660029004801561081c5780601f106107f15761010080835404028352916020019161081c565b820191906000526020600020905b8154815290600101906020018083116107ff57829003601f168201915b505050505081565b600081600460003373ffffffffffffffffffffffffffffffffffffffff1673ffffffffffffffffffffffffffffffffffffffff1681526020019081526020016000205410156108a8576040517f08c379a000000000000000000000000000000000000000000000000000000000815260040161089f90610c33565b60405180910390fd5b81600460003373ffffffffffffffffffffffffffffffffffffffff1673ffffffffffffffffffffffffffffffffffffffff1681526020019081526020016000206000828254039250508190555081600460008573ffffffffffffffffffffffffffffffffffffffff1673ffffffffffffffffffffffffffffffffffffffff168152602001908152602001600020600082825401925050819055508273ffffffffffffffffffffffffffffffffffffffff163373ffffffffffffffffffffffffffffffffffffffff167fddf252ad1be2c89b69c2b068fc378daa952ba7f163c4a11628f55a4df523b3ef8460405161099f9190610c53565b60405180910390a36001905092915050565b6005602052816000526040600020602052806000526040600020600091509150505481565b6000813590506109e581610d3e565b92915050565b6000813590506109fa81610d55565b92915050565b600060208284031215610a1257600080fd5b6000610a20848285016109d6565b91505092915050565b60008060408385031215610a3c57600080fd5b6000610a4a858286016109d6565b9250506020610a5b858286016109d6565b9150509250929050565b600080600060608486031215610a7a57600080fd5b6000610a88868287016109d6565b9350506020610a99868287016109d6565b9250506040610aaa868287016109eb565b9150509250925092565b60008060408385031215610ac757600080fd5b6000610ad5858286016109d6565b9250506020610ae6858286016109eb565b9150509250929050565b610af981610cb7565b82525050565b6000610b0a82610c89565b610b148185610c94565b9350610b24818560208601610cfa565b610b2d81610d2d565b840191505092915050565b6000610b45601283610c94565b91507f416c6c6f77616e636520657863656564656400000000000000000000000000006000830152602082019050919050565b6000610b85601483610c94565b91507f496e73756666696369656e742062616c616e63650000000000000000000000006000830152602082019050919050565b610bc181610ce3565b82525050565b610bd081610ced565b82525050565b6000602082019050610beb6000830184610af0565b92915050565b60006020820190508181036000830152610c0b8184610aff565b905092915050565b60006020820190508181036000830152610c2c81610b38565b9050919050565b60006020820190508181036000830152610c4c81610b78565b9050919050565b6000602082019050610c686000830184610bb8565b92915050565b6000602082019050610c836000830184610bc7565b92915050565b600081519050919050565b600082825260208201905092915050565b6000610cb082610cc3565b9050919050565b60008115159050919050565b600073ffffffffffffffffffffffffffffffffffffffff82169050919050565b6000819050919050565b600060ff82169050919050565b60005b83811015610d18578082015181840152602081019050610cfd565b83811115610d27576000848401525b50505050565b6000601f19601f8301169050919050565b610d4781610ca5565b8114610d5257600080fd5b50565b610d5e81610ce3565b8114610d6957600080fd5b5056fea365627a7a72315820dfe47e8607e9b1ec14b35fcaa2d3f861eb7d97937c1054cb5e7ca2787192344a6c6578706572696d656e74616cf564736f6c63430005110040",
  "source": "// pragma solidity >=0.5.2;\n// pragma experimental ABIEncoderV2;\n\n// contract Land {\n//     struct Landreg {\n//         uint id;\n//         string landAddress;\n//         string area;\n//         string city;\n//         string district;\n//         string country;\n//         uint landPrice;\n//         string propertyID;\n//     }\n\n//     struct Buyer {\n//         address id;\n//         string name;\n//         uint age;\n//         string city;\n//         string HKID;\n//         string email;\n//     }\n\n//     struct Seller {\n//         address id;\n//         string name;\n//         uint age;\n//         string HKID;\n//     }\n\n//     struct LandRequest {\n//         uint reqId;\n//         address sellerId;\n//         address buyerId;\n//         uint landId;\n//     }\n\n//     address public landInspector;\n\n//     //key value pairs\n//     mapping(uint => Landreg) public lands;\n//     mapping(address => Seller) public SellerMapping;\n//     mapping(address => Buyer) public BuyerMapping;\n//     mapping(uint => LandRequest) public RequestsMapping;\n\n//     // New mapping to track unique property IDs\n//     mapping(string => bool) private propertyIDExists;\n\n//     mapping(address => bool) public RegisteredAddressMapping;\n//     mapping(address => bool) public RegisteredSellerMapping;\n//     mapping(address => bool) public RegisteredBuyerMapping;\n//     mapping(uint => address) public LandOwner;\n//     mapping(uint => bool) public RequestStatus;\n//     mapping(uint => bool) public RequestedLands;\n//     mapping(uint => bool) public PaymentReceived;\n\n//     mapping(uint => bool) public landApprovalStatus; // Tracks if land is approved by the land inspector\n//     mapping(uint => bool) public saleApprovalStatus; // Tracks if the sale is approved by the land inspector\n\n//     // address public Land_Inspector;\n//     address[] public sellers;\n//     address[] public buyers;\n\n//     uint public landsCount;\n//     // uint public inspectorsCount;\n//     uint public sellersCount;\n//     uint public buyersCount;\n//     uint public requestsCount;\n\n//     event Registration(address _registrationId);\n//     event AddingLand(uint indexed _landId);\n//     event Landrequested(address _sellerId);\n//     event requestApproved(address _buyerId);\n//     event LandOwnershipTransferred(\n//         uint indexed landId,\n//         address indexed seller,\n//         address indexed buyer\n//     );\n\n//     event LandAdded(uint indexed _landId, address indexed _seller);\n//     event LandApproved(uint indexed _landId);\n//     event SaleRequested(\n//         uint indexed _landId,\n//         address indexed _seller,\n//         address indexed _buyer\n//     );\n//     event SaleApproved(\n//         uint indexed _landId,\n//         address indexed _seller,\n//         address indexed _buyer\n//     );\n//     event PaymentMade(\n//         uint indexed _landId,\n//         address indexed _seller,\n//         address indexed _buyer\n//     );\n\n//     // Constructor to set the deployer as the initial land inspector\n//     constructor() public {\n//         landInspector = msg.sender;\n//     }\n\n//     // Modifier to check if the caller is the land inspector\n//     modifier onlyLandInspector() {\n//         require(\n//             msg.sender == landInspector,\n//             \"Caller is not the land inspector\"\n//         );\n//         _;\n//     }\n\n//     function getLandsCount() public view returns (uint) {\n//         return landsCount;\n//     }\n\n//     function getBuyersCount() public view returns (uint) {\n//         return buyersCount;\n//     }\n\n//     function getSellersCount() public view returns (uint) {\n//         return sellersCount;\n//     }\n\n//     function getRequestsCount() public view returns (uint) {\n//         return requestsCount;\n//     }\n//     function getArea(uint i) public view returns (string memory) {\n//         return lands[i].area;\n//     }\n//     function getCity(uint i) public view returns (string memory) {\n//         return lands[i].city;\n//     }\n//     function getDistrict(uint i) public view returns (string memory) {\n//         return lands[i].district;\n//     }\n//     function getPrice(uint i) public view returns (uint) {\n//         return lands[i].landPrice;\n//     }\n//     function getPID(uint i) public view returns (string memory) {\n//         return lands[i].propertyID;\n//     }\n\n//     function getLandOwner(uint id) public view returns (address) {\n//         return LandOwner[id];\n//     }\n\n//     function isSeller(address _id) public view returns (bool) {\n//         if (RegisteredSellerMapping[_id]) {\n//             return true;\n//         }\n//     }\n\n//     function isBuyer(address _id) public view returns (bool) {\n//         if (RegisteredBuyerMapping[_id]) {\n//             return true;\n//         }\n//     }\n//     function isRegistered(address _id) public view returns (bool) {\n//         if (RegisteredAddressMapping[_id]) {\n//             return true;\n//         }\n//     }\n\n//     function addLand(\n//         string memory _landAddress,\n//         string memory _area,\n//         string memory _city,\n//         string memory _district,\n//         string memory _country,\n//         uint _landPrice,\n//         string memory _propertyID\n//     ) public {\n//         require(isSeller(msg.sender), \"Only sellers can add lands.\");\n//         require(\n//             !propertyIDExists[_propertyID],\n//             \"Property ID is already registered.\"\n//         );\n\n//         landsCount++;\n//         lands[landsCount] = Landreg(\n//             landsCount,\n//             _landAddress,\n//             _area,\n//             _city,\n//             _district,\n//             _country,\n//             _landPrice,\n//             _propertyID\n//         );\n//         landApprovalStatus[landsCount] = false; // Initially not approved\n//         LandOwner[landsCount] = msg.sender;\n//         propertyIDExists[_propertyID] = true; // Mark this property ID as registered\n\n//         RequestStatus[landsCount] = false;\n//         RequestedLands[landsCount] = false;\n//         saleApprovalStatus[landsCount] = false;\n\n//         // Emit an event that land has been added\n//         emit LandAdded(landsCount, msg.sender);\n//     }\n\n//     // Function for the land inspector to approve land\n//     function approveLand(uint _landId) public onlyLandInspector {\n//         require(!landApprovalStatus[_landId], \"Land has already been approved\");\n//         landApprovalStatus[_landId] = true;\n\n//         // Emit an event that land has been approved\n//         emit LandApproved(_landId);\n//     }\n\n//     function getLandDetails(\n//         uint _landId\n//     )\n//         public\n//         view\n//         returns (\n//             uint,\n//             string memory,\n//             string memory,\n//             string memory,\n//             string memory,\n//             string memory,\n//             uint,\n//             string memory\n//         )\n//     {\n//         require(\n//             _landId > 0 && _landId <= landsCount,\n//             \"Land ID is out of bounds\"\n//         );\n\n//         Landreg memory land = lands[_landId];\n//         return (\n//             land.id,\n//             land.landAddress,\n//             land.area,\n//             land.city,\n//             land.district,\n//             land.country,\n//             land.landPrice,\n//             land.propertyID\n//         );\n//     }\n\n//     //registration of seller\n//     function registerSeller(\n//         string memory _name,\n//         uint _age,\n//         string memory _HKID\n//     ) public {\n//         //require that Seller is not already registered\n//         require(!RegisteredAddressMapping[msg.sender]);\n\n//         RegisteredAddressMapping[msg.sender] = true;\n//         RegisteredSellerMapping[msg.sender] = true;\n//         sellersCount++;\n//         SellerMapping[msg.sender] = Seller(msg.sender, _name, _age, _HKID);\n//         sellers.push(msg.sender);\n//         emit Registration(msg.sender);\n//     }\n\n//     function updateSeller(\n//         string memory _name,\n//         uint _age,\n//         string memory _HKID\n//     ) public {\n//         //require that Seller is already registered\n//         require(\n//             RegisteredAddressMapping[msg.sender] &&\n//                 (SellerMapping[msg.sender].id == msg.sender)\n//         );\n\n//         SellerMapping[msg.sender].name = _name;\n//         SellerMapping[msg.sender].age = _age;\n//         SellerMapping[msg.sender].HKID = _HKID;\n//     }\n\n//     function getSeller() public view returns (address[] memory) {\n//         return (sellers);\n//     }\n\n//     function getSellerDetails(\n//         address i\n//     ) public view returns (string memory, uint, string memory) {\n//         return (\n//             SellerMapping[i].name,\n//             SellerMapping[i].age,\n//             SellerMapping[i].HKID\n//         );\n//     }\n\n//     function registerBuyer(\n//         string memory _name,\n//         uint _age,\n//         string memory _city,\n//         string memory _HKID,\n//         string memory _email\n//     ) public {\n//         //require that Buyer is not already registered\n//         require(!RegisteredAddressMapping[msg.sender]);\n\n//         RegisteredAddressMapping[msg.sender] = true;\n//         RegisteredBuyerMapping[msg.sender] = true;\n//         buyersCount++;\n//         BuyerMapping[msg.sender] = Buyer(\n//             msg.sender,\n//             _name,\n//             _age,\n//             _city,\n//             _HKID,\n//             _email\n//         );\n//         buyers.push(msg.sender);\n\n//         emit Registration(msg.sender);\n//     }\n\n//     function updateBuyer(\n//         string memory _name,\n//         uint _age,\n//         string memory _city,\n//         string memory _email,\n//         string memory _HKID\n//     ) public {\n//         //require that Buyer is already registered\n//         require(\n//             RegisteredAddressMapping[msg.sender] &&\n//                 (BuyerMapping[msg.sender].id == msg.sender)\n//         );\n\n//         BuyerMapping[msg.sender].name = _name;\n//         BuyerMapping[msg.sender].age = _age;\n//         BuyerMapping[msg.sender].city = _city;\n//         BuyerMapping[msg.sender].HKID = _HKID;\n//         BuyerMapping[msg.sender].email = _email;\n//     }\n\n//     function getBuyer() public view returns (address[] memory) {\n//         return (buyers);\n//     }\n\n//     function getBuyerDetails(\n//         address i\n//     )\n//         public\n//         view\n//         returns (\n//             string memory,\n//             string memory,\n//             string memory,\n//             uint,\n//             string memory\n//         )\n//     {\n//         return (\n//             BuyerMapping[i].name,\n//             BuyerMapping[i].city,\n//             BuyerMapping[i].email,\n//             BuyerMapping[i].age,\n//             BuyerMapping[i].HKID\n//         );\n//     }\n\n//     function requestLand(address _sellerId, uint _landId) public {\n//         require(isBuyer(msg.sender));\n\n//         requestsCount++;\n//         RequestsMapping[requestsCount] = LandRequest(\n//             requestsCount,\n//             _sellerId,\n//             msg.sender,\n//             _landId\n//         );\n//         RequestStatus[requestsCount] = false;\n//         RequestedLands[requestsCount] = true;\n\n//         emit Landrequested(_sellerId);\n//     }\n\n//     // Function for the land inspector to approve the sale\n//     function approveSale(uint _reqId) public onlyLandInspector {\n//         require(\n//             RequestedLands[RequestsMapping[_reqId].landId],\n//             \"Land has not been requested\"\n//         );\n//         require(!saleApprovalStatus[_reqId], \"Sale has already been approved\");\n\n//         RequestStatus[_reqId] = true;\n//         saleApprovalStatus[_reqId] = true; // Mark sale as approved by the land inspector\n\n//         // Emit an event that sale has been approved\n//         emit SaleApproved(\n//             RequestsMapping[_reqId].landId,\n//             RequestsMapping[_reqId].sellerId,\n//             RequestsMapping[_reqId].buyerId\n//         );\n//     }\n\n//     function getRequestDetails(\n//         uint i\n//     ) public view returns (address, address, uint, bool) {\n//         return (\n//             RequestsMapping[i].sellerId,\n//             RequestsMapping[i].buyerId,\n//             RequestsMapping[i].landId,\n//             RequestStatus[i]\n//         );\n//     }\n\n//     function isLandApproved(uint _landId) public view returns (bool) {\n//         return landApprovalStatus[_landId];\n//     }\n\n//     function isSaleApproved(uint _reqId) public view returns (bool) {\n//         return saleApprovalStatus[_reqId];\n//     }\n\n//     function isRequested(uint _id) public view returns (bool) {\n//         if (RequestedLands[_id]) {\n//             return true;\n//         } else {\n//             return false;\n//         }\n//     }\n\n//     function isApproved(uint _id) public view returns (bool) {\n//         if (RequestStatus[_id]) {\n//             return true;\n//         } else {\n//             return false;\n//         }\n//     }\n\n//     function approveRequest(uint _reqId) public {\n//         require(isSeller(msg.sender));\n\n//         RequestStatus[_reqId] = true;\n//     }\n\n//     function isPaid(uint _landId) public view returns (bool) {\n//         if (PaymentReceived[_landId]) {\n//             return true;\n//         }\n//     }\n\n//     function payment(address payable _seller, uint _landId) public payable {\n//         require(LandOwner[_landId] == _seller, \"Seller does not own the land\");\n//         require(msg.value == lands[_landId].landPrice, \"Incorrect payment amount\");\n//         require(isBuyer(msg.sender), \"Only registered buyers can make payments\");\n//         require(landApprovalStatus[_landId], \"Land has not been approved by the inspector\");\n//         // Find the request ID associated with this land and buyer\n//         uint _reqId = findRequest(_seller, _landId, msg.sender);\n//         require(saleApprovalStatus[_reqId], \"Sale has not beenapproved by the inspector\");\n//         require(LandOwner[_landId] == _seller, \"Seller does not own the land.\");\n//         require(\n//             msg.value == lands[_landId].landPrice,\n//             \"Incorrect payment amount.\"\n//         );\n//         require(\n//             isBuyer(msg.sender),\n//             \"Only registered buyers can make payments.\"\n//         );\n\n//         // Transfer the land price to the seller\n//         _seller.transfer(msg.value);\n\n//         // Update the land ownership\n//         LandOwner[_landId] = msg.sender;\n\n//         // Mark the payment as received\n//         PaymentReceived[_landId] = true;\n\n//         // Emit an event that payment has been made\n//         emit PaymentMade(_landId, _seller, msg.sender);\n\n//         // Emit an event, if you have one for successful payment/transfer\n//         emit LandOwnershipTransferred(_landId, _seller, msg.sender);\n//     }\n\n//     // Helper function to find the request ID based on land and buyer\n//     function findRequest(address _seller, uint _landId, address _buyer) internal view returns (uint) {\n//         for (uint i = 1; i <= requestsCount; i++) {\n//             if (RequestsMapping[i].sellerId == _seller && RequestsMapping[i].buyerId == _buyer && RequestsMapping[i].landId == _landId) {\n//                 return i;\n//             }\n//         }\n//         revert(\"Request not found\");\n//     }\n// }\n\n// SPDX-License-Identifier: MIT\npragma solidity >=0.5.2;\npragma experimental ABIEncoderV2;\n\ncontract LandToken {\n    string public name = \"LandToken\";\n    string public symbol = \"LND\";\n    uint8 public decimals = 18;\n    uint256 public totalSupply;\n\n    mapping(address => uint256) public balanceOf;\n    mapping(address => mapping(address => uint256)) public allowance;\n\n    event Transfer(address indexed from, address indexed to, uint256 value);\n    event Approval(address indexed owner, address indexed spender, uint256 value);\n\n    // Mint new tokens\n    function mint(address to, uint256 amount) public {\n        totalSupply += amount;\n        balanceOf[to] += amount;\n        emit Transfer(address(0), to, amount);\n    }\n\n    // Transfer token to a specified address\n    function transfer(address to, uint256 value) public returns (bool success) {\n        require(balanceOf[msg.sender] >= value, \"Insufficient balance\");\n        balanceOf[msg.sender] -= value;\n        balanceOf[to] += value;\n        emit Transfer(msg.sender, to, value);\n        return true;\n    }\n\n    // Approve spender to spend specified amount\n    function approve(address spender, uint256 value) public returns (bool success) {\n        allowance[msg.sender][spender] = value;\n        emit Approval(msg.sender, spender, value);\n        return true;\n    }\n\n    // Transfer from one address to another using allowance\n    function transferFrom(address from, address to, uint256 value) public returns (bool success) {\n        require(balanceOf[from] >= value, \"Insufficient balance\");\n        require(allowance[from][msg.sender] >= value, \"Allowance exceeded\");\n        balanceOf[from] -= value;\n        balanceOf[to] += value;\n        allowance[from][msg.sender] -= value;\n        emit Transfer(from, to, value);\n        return true;\n    }\n}\n\ncontract Land {\n    struct Landreg {\n        uint id;\n        string landAddress;\n        string area;\n        string city;\n        string district;\n        string country;\n        uint landPrice;\n        string propertyID;\n    }\n\n    struct Buyer {\n        address id;\n        string name;\n        uint age;\n        string city;\n        string HKID;\n        string email;\n    }\n\n    struct Seller {\n        address id;\n        string name;\n        uint age;\n        string HKID;\n    }\n\n    struct LandRequest {\n        uint reqId;\n        address sellerId;\n        address buyerId;\n        uint landId;\n    }\n\n    address public landInspector;\n    LandToken public landToken;\n\n    // Key-value pairs\n    mapping(uint => Landreg) public lands;\n    mapping(address => Seller) public SellerMapping;\n    mapping(address => Buyer) public BuyerMapping;\n    mapping(uint => LandRequest) public RequestsMapping;\n\n    // New mapping to track unique property IDs\n    mapping(string => bool) private propertyIDExists;\n\n    mapping(address => bool) public RegisteredAddressMapping;\n    mapping(address => bool) public RegisteredSellerMapping;\n    mapping(address => bool) public RegisteredBuyerMapping;\n    mapping(uint => address) public LandOwner;\n    mapping(uint => bool) public RequestStatus;\n    mapping(uint => bool) public RequestedLands;\n    mapping(uint => bool) public PaymentReceived;\n\n    mapping(uint => bool) public landApprovalStatus; // Tracks if land is approved by the land inspector\n    mapping(uint => bool) public saleApprovalStatus; // Tracks if the sale is approved by the land inspector\n\n    address[] public sellers;\n    address[] public buyers;\n\n    uint public landsCount;\n    uint public sellersCount;\n    uint public buyersCount;\n    uint public requestsCount;\n\n    event Registration(address _registrationId);\n    event AddingLand(uint indexed _landId);\n    event Landrequested(address _sellerId);\n    event requestApproved(address _buyerId);\n    event LandOwnershipTransferred(\n        uint indexed landId,\n        address indexed seller,\n        address indexed buyer\n    );\n\n    event LandAdded(uint indexed _landId, address indexed _seller);\n    event LandApproved(uint indexed _landId);\n    event SaleRequested(\n        uint indexed _landId,\n        address indexed _seller,\n        address indexed _buyer\n    );\n    event SaleApproved(\n        uint indexed _landId,\n        address indexed _seller,\n        address indexed _buyer\n    );\n    event PaymentMade(\n        uint indexed _landId,\n        address indexed seller,\n        address indexed buyer\n    );\n\n    // Constructor to set the deployer as the initial land inspector\n    constructor() public {\n        landInspector = msg.sender;\n        landToken = new LandToken(); // Deploy the LandToken contract\n    }\n\n    // Modifier to check if the caller is the land inspector\n    modifier onlyLandInspector() {\n        require(\n            msg.sender == landInspector,\n            \"Caller is not the land inspector\"\n        );\n        _;\n    }\n\n    function getLandsCount() public view returns (uint) {\n        return landsCount;\n    }\n\n    function getBuyersCount() public view returns (uint) {\n        return buyersCount;\n    }\n\n    function getSellersCount() public view returns (uint) {\n        return sellersCount;\n    }\n\n    function getRequestsCount() public view returns (uint) {\n        return requestsCount;\n    }\n    function getArea(uint i) public view returns (string memory) {\n        return lands[i].area;\n    }\n    function getCity(uint i) public view returns (string memory) {\n        return lands[i].city;\n    }\n    function getDistrict(uint i) public view returns (string memory) {\n        return lands[i].district;\n    }\n    function getPrice(uint i) public view returns (uint) {\n        return lands[i].landPrice;\n    }\n    function getPID(uint i) public view returns (string memory) {\n        return lands[i].propertyID;\n    }\n\n    function getLandOwner(uint id) public view returns (address) {\n        return LandOwner[id];\n    }\n\n    function isSeller(address _id) public view returns (bool) {\n        if (RegisteredSellerMapping[_id]) {\n            return true;\n        }\n        return false;\n    }\n\n    function isBuyer(address _id) public view returns (bool) {\n        if (RegisteredBuyerMapping[_id]) {\n            return true;\n        }\n        return false;\n    }\n    function isRegistered(address _id) public view returns (bool) {\n        if (RegisteredAddressMapping[_id]) {\n            return true;\n        }\n        return false;\n    }\n\n    function addLand(\n        string memory _landAddress,\n        string memory _area,\n        string memory _city,\n        string memory _district,\n        string memory _country,\n        uint _landPrice,\n        string memory _propertyID\n    ) public {\n        require(isSeller(msg.sender), \"Only sellers can add lands.\");\n        require(\n            !propertyIDExists[_propertyID],\n            \"Property ID is already registered.\"\n        );\n\n        landsCount++;\n        lands[landsCount] = Landreg(\n            landsCount,\n            _landAddress,\n            _area,\n            _city,\n            _district,\n            _country,\n            _landPrice,\n            _propertyID\n        );\n        landApprovalStatus[landsCount] = false; // Initially not approved\n        LandOwner[landsCount] = msg.sender;\n        propertyIDExists[_propertyID] = true; // Mark this property ID as registered\n\n        RequestStatus[landsCount] = false;\n        RequestedLands[landsCount] = false;\n        saleApprovalStatus[landsCount] = false;\n\n        // Mint tokens representing land ownership to the seller\n        // Here, mint tokens equal to 1 token * 10^18 as a representation of ownership (1 token per land)\n        landToken.mint(msg.sender, 1 * (10 ** uint256(landToken.decimals())));\n\n        // Emit an event that land has been added\n        emit LandAdded(landsCount, msg.sender);\n    }\n\n    // Function for the land inspector to approve land\n    function approveLand(uint _landId) public onlyLandInspector {\n        require(!landApprovalStatus[_landId], \"Land has already been approved\");\n        landApprovalStatus[_landId] = true;\n\n        // Emit an event that land has been approved\n        emit LandApproved(_landId);\n    }\n\n    function getLandDetails(\n        uint _landId\n    )\n        public\n        view\n        returns (\n            uint,\n            string memory,\n            string memory,\n            string memory,\n            string memory,\n            string memory,\n            uint,\n            string memory\n        )\n    {\n        require(\n            _landId > 0 && _landId <= landsCount,\n            \"Land ID is out of bounds\"\n        );\n\n        Landreg memory land = lands[_landId];\n        return (\n            land.id,\n            land.landAddress,\n            land.area,\n            land.city,\n            land.district,\n            land.country,\n            land.landPrice,\n            land.propertyID\n        );\n    }\n\n    // Registration of seller\n    function registerSeller(\n        string memory _name,\n        uint _age,\n        string memory _HKID\n    ) public {\n        //require that Seller is not already registered\n        require(!RegisteredAddressMapping[msg.sender]);\n\n        RegisteredAddressMapping[msg.sender] = true;\n        RegisteredSellerMapping[msg.sender] = true;\n        sellersCount++;\n        SellerMapping[msg.sender] = Seller(msg.sender, _name, _age, _HKID);\n        sellers.push(msg.sender);\n        emit Registration(msg.sender);\n    }\n\n    function updateSeller(\n        string memory _name,\n        uint _age,\n        string memory _HKID\n    ) public {\n        //require that Seller is already registered\n        require(\n            RegisteredAddressMapping[msg.sender] &&\n                (SellerMapping[msg.sender].id == msg.sender)\n        );\n\n        SellerMapping[msg.sender].name = _name;\n        SellerMapping[msg.sender].age = _age;\n        SellerMapping[msg.sender].HKID = _HKID;\n    }\n\n    function getSeller() public view returns (address[] memory) {\n        return (sellers);\n    }\n\n    function getSellerDetails(\n        address i\n    ) public view returns (string memory, uint, string memory) {\n        return (\n            SellerMapping[i].name,\n            SellerMapping[i].age,\n            SellerMapping[i].HKID\n        );\n    }\n\n    function registerBuyer(\n        string memory _name,\n        uint _age,\n        string memory _city,\n        string memory _HKID,\n        string memory _email\n    ) public {\n        //require that Buyer is not already registered\n        require(!RegisteredAddressMapping[msg.sender]);\n\n        RegisteredAddressMapping[msg.sender] = true;\n        RegisteredBuyerMapping[msg.sender] = true;\n        buyersCount++;\n        BuyerMapping[msg.sender] = Buyer(\n            msg.sender,\n            _name,\n            _age,\n            _city,\n            _HKID,\n            _email\n        );\n        buyers.push(msg.sender);\n\n        emit Registration(msg.sender);\n    }\n\n    function updateBuyer(\n        string memory _name,\n        uint _age,\n        string memory _city,\n        string memory _email,\n        string memory _HKID\n    ) public {\n        //require that Buyer is already registered\n        require(\n            RegisteredAddressMapping[msg.sender] &&\n                (BuyerMapping[msg.sender].id == msg.sender)\n        );\n\n        BuyerMapping[msg.sender].name = _name;\n        BuyerMapping[msg.sender].age = _age;\n        BuyerMapping[msg.sender].city = _city;\n        BuyerMapping[msg.sender].HKID = _HKID;\n        BuyerMapping[msg.sender].email = _email;\n    }\n\n    function getBuyer() public view returns (address[] memory) {\n        return (buyers);\n    }\n\n    function getBuyerDetails(\n        address i\n    )\n        public\n        view\n        returns (\n            string memory,\n            string memory,\n            string memory,\n            uint,\n            string memory\n        )\n    {\n        return (\n            BuyerMapping[i].name,\n            BuyerMapping[i].city,\n            BuyerMapping[i].email,\n            BuyerMapping[i].age,\n            BuyerMapping[i].HKID\n        );\n    }\n\n    function requestLand(address _sellerId, uint _landId) public {\n        require(isBuyer(msg.sender));\n\n        requestsCount++;\n        RequestsMapping[requestsCount] = LandRequest(\n            requestsCount,\n            _sellerId,\n            msg.sender,\n            _landId\n        );\n        RequestStatus[requestsCount] = false;\n        RequestedLands[requestsCount] = true;\n\n        emit Landrequested(_sellerId);\n    }\n\n    // Function for the land inspector to approve the sale\n    function approveSale(uint _reqId) public onlyLandInspector {\n        require(\n            RequestedLands[RequestsMapping[_reqId].landId],\n            \"Land has not been requested\"\n        );\n        require(!saleApprovalStatus[_reqId], \"Sale has already been approved\");\n\n        RequestStatus[_reqId] = true;\n        saleApprovalStatus[_reqId] = true; // Mark sale as approved by the land inspector\n\n        // Emit an event that sale has been approved\n        emit SaleApproved(\n            RequestsMapping[_reqId].landId,\n            RequestsMapping[_reqId].sellerId,\n            RequestsMapping[_reqId].buyerId\n        );\n    }\n\n    function getRequestDetails(\n        uint i\n    ) public view returns (address, address, uint, bool) {\n        return (\n            RequestsMapping[i].sellerId,\n            RequestsMapping[i].buyerId,\n            RequestsMapping[i].landId,\n            RequestStatus[i]\n        );\n    }\n\n    function isLandApproved(uint _landId) public view returns (bool) {\n        return landApprovalStatus[_landId];\n    }\n\n    function isSaleApproved(uint _reqId) public view returns (bool) {\n        return saleApprovalStatus[_reqId];\n    }\n\n    function isRequested(uint _id) public view returns (bool) {\n        if (RequestedLands[_id]) {\n            return true;\n        } else {\n            return false;\n        }\n    }\n\n    function isApproved(uint _id) public view returns (bool) {\n        if (RequestStatus[_id]) {\n            return true;\n        } else {\n            return false;\n        }\n    }\n\n    function approveRequest(uint _reqId) public {\n        require(isSeller(msg.sender));\n\n        RequestStatus[_reqId] = true;\n    }\n\n    function isPaid(uint _landId) public view returns (bool) {\n        if (PaymentReceived[_landId]) {\n            return true;\n        }\n        return false;\n    }\n\n    function payment(address payable _seller, uint _landId) public payable {\n        require(LandOwner[_landId] == _seller, \"Seller does not own the land\");\n        require(msg.value == lands[_landId].landPrice, \"Incorrect payment amount\");\n        require(isBuyer(msg.sender), \"Only registered buyers can make payments\");\n        require(landApprovalStatus[_landId], \"Land has not been approved by the inspector\");\n\n        // Find the request ID associated with this land and buyer\n        uint _reqId = findRequest(_seller, _landId, msg.sender);\n        require(saleApprovalStatus[_reqId], \"Sale has not been approved by the inspector\");\n\n        // Transfer tokens from the buyer to the seller\n        bool success = landToken.transferFrom(msg.sender, _seller, 1 * (10 ** uint256(landToken.decimals())));\n        require(success, \"Token transfer failed\");\n\n        // Update the land ownership\n        LandOwner[_landId] = msg.sender;\n\n        // Mark the payment as received\n        PaymentReceived[_landId] = true;\n\n        // Transfer the payment (ether) to seller\n        _seller.transfer(msg.value);\n\n        // Emit an event that payment has been made\n        emit PaymentMade(_landId, _seller, msg.sender);\n\n        // Emit an event for successful land ownership transfer\n        emit LandOwnershipTransferred(_landId, _seller, msg.sender);\n    }\n\n    // Helper function to find the request ID based on land and buyer\n    function findRequest(address _seller, uint _landId, address _buyer) internal view returns (uint) {\n        for (uint i = 1; i <= requestsCount; i++) {\n            if (RequestsMapping[i].sellerId == _seller && RequestsMapping[i].buyerId == _buyer && RequestsMapping[i].landId == _landId) {\n                return i;\n            }\n        }\n        revert(\"Request not found\");\n    }\n}\n",
  "sourcePath": "C:\\Users\\HP\\Desktop\\Land_Registration_DAPP-Blockchain\\web3\\contracts\\land.sol",
  "compiler": {
    "name": "solc",
    "version": "0.5.17+commit.d19bba13.Emscripten.clang"
  },
  "schemaVersion": "3.4.16",
  "updatedAt": "2025-05-04T06:25:55.003Z",
  "devdoc": {
    "methods": {}
  },
  "userdoc": {
    "methods": {}
  }
}